:020000040800F2
:1000000000500020E1010008310200083102000820
:10001000310200083102000831020008000000002F
:100020000000000000000000000000003102000895
:10003000310200080000000031020008310200080F
:1000400031020008310200083102000831020008C4
:1000500031020008310200083102000831020008B4
:1000600031020008310200083102000831020008A4
:100070003102000831020008310200083102000894
:100080003102000831020008310200083102000884
:100090003102000831020008310200083102000874
:1000A0003102000831020008310200083102000864
:1000B0003102000831020008310200083102000854
:1000C0003102000831020008310200083102000844
:1000D0003102000831020008310200083102000834
:1000E000310200083102000800000000310200085F
:1000F0003102000831020008310200083102000814
:100100003102000831020008310200083102000803
:1001100031020008310200083102000831020008F3
:1001200031020008310200083102000831020008E3
:1001300010B5054C237833B9044B13B10448AFF321
:1001400000800123237010BD00000020000000008B
:100150007C02000808B5034B1BB103490348AFF309
:10016000008008BD00000000040000207C020008A0
:1001700080B483B000AF184B9B69174A43F010035B
:100180009361164B5B68154A23F400135360134BBD
:100190005B68124A43F480135360104B5B680F4A4C
:1001A00023F4800353600D4B5B680C4A23F4000377
:1001B00053600A4BDB68094A83F40053D360002381
:1001C0007B6002E07B6801337B607B684CF24F32DE
:1001D0009342F7DDEDE700BF001002400010014040
:1001E0000D488546AFF300800C480D490D4A0023A9
:1001F00002E0D458C4500433C4188C42F9D30A4ADC
:100200000A4C002301E013600432A242FBD300F049
:1002100011F8FFF7ADFFFEE70050002000000020BE
:10022000000000209C020008000000201C000020AC
:10023000FEE7000070B500260C4D0D4B5B1B9C10BB
:10024000A64209D1002600F019F80A4D0A4B5B1BA3
:100250009C10A64205D170BD55F8043B9847013665
:10026000EEE755F8043B98470136F2E794020008A0
:10027000940200089402000898020008F8B500BF34
:10028000F8BC08BC9E467047F8B500BFF8BC08BC77
:040290009E467047CF
:040294005501000808
:040298003101000828
:04000005080001E10D
:00000001FF
