:020000040800F2
:1000000000500020E5010008350200083502000814
:100010003502000835020008350200080000000023
:100020000000000000000000000000003502000891
:100030003502000800000000350200083502000803
:1000400035020008350200083502000835020008B4
:1000500035020008350200083502000835020008A4
:100060003502000835020008350200083502000894
:100070003502000835020008350200083502000884
:100080003502000835020008350200083502000874
:100090003502000835020008350200083502000864
:1000A0003502000835020008350200083502000854
:1000B0003502000835020008350200083502000844
:1000C0003502000835020008350200083502000834
:1000D0003502000835020008350200083502000824
:1000E0003502000835020008000000003502000853
:1000F0003502000835020008350200083502000804
:1001000035020008350200083502000835020008F3
:1001100035020008350200083502000835020008E3
:1001200035020008350200083502000835020008D3
:1001300010B5054C237833B9044B13B10448AFF321
:1001400000800123237010BD00000020000000008B
:100150008002000808B5034B1BB103490348AFF305
:10016000008008BD0000000004000020800200089C
:1001700080B483B000AF174B1B68164A43F01003DE
:100180001360154B1B68144A23F400131360124BC1
:100190001B68114A43F4801313600F4B1B680E4A0F
:1001A00023F4800313600C4B1B680B4A23F40003F9
:1001B00013600A4B1B68094A83F400531360002341
:1001C0007B6002E07B6801337B607B68044A93427A
:1001D000F8DDEEE718100240041001400C10014059
:1001E0001FA107000D488546AFF300800C480D495C
:1001F0000D4A002302E0D458C4500433C4188C4282
:10020000F9D30A4A0A4C002301E013600432A242E7
:10021000FBD300F011F8FFF7ABFFFEE70050002022
:100220000000002000000020A002000800000020C4
:100230001C000020FEE7000070B500260C4D0D4BA1
:100240005B1B9C10A64209D1002600F019F80A4D4C
:100250000A4B5B1B9C10A64205D170BD55F8043BB0
:1002600098470136EEE755F8043B98470136F2E728
:100270009802000898020008980200089C020008F2
:10028000F8B500BFF8BC08BC9E467047F8B500BF83
:08029000F8BC08BC9E46704753
:040298005501000804
:04029C003101000824
:04000005080001E509
:00000001FF
