:020000040800F2
:1000000000500020050200085502000855020008B3
:1000100055020008550200085502000800000000C3
:100020000000000000000000000000005502000871
:1000300055020008000000005502000855020008A3
:100040005502000855020008550200085502000834
:100050005502000855020008550200085502000824
:100060005502000855020008550200085502000814
:100070005502000855020008550200085502000804
:1000800055020008550200085502000855020008F4
:1000900055020008550200085502000855020008E4
:1000A00055020008550200085502000855020008D4
:1000B00055020008550200085502000855020008C4
:1000C00055020008550200085502000855020008B4
:1000D00055020008550200085502000855020008A4
:1000E00055020008550200080000000055020008F3
:1000F0005502000855020008550200085502000884
:100100005502000855020008550200085502000873
:100110005502000855020008550200085502000863
:100120005502000855020008550200085502000853
:1001300010B5054C237833B9044B13B10448AFF321
:1001400000800123237010BD00000020000000008B
:10015000A002000808B5034B1BB103490348AFF3E5
:10016000008008BD0000000004000020A00200087C
:1001700080B483B000AF204B9B691F4A43F010034B
:1001800093611E4B5B681D4A23F4001353601B4BA5
:100190005B681A4A43F480135360184B5B68174A34
:1001A00023F400035360154B5B68144A23F4800367
:1001B0005360124BDB68114A23F40053D3600023D1
:1001C0007B6002E07B6801337B607B684CF24F32DE
:1001D0009342F7DD094BDB68084A43F40053D360D0
:1001E00000233B6002E03B6801333B603B68044A0C
:1001F0009342F8DDDDE700BF00100240001001402F
:10020000DF9304000D488546AFF300800C480D498C
:100210000D4A002302E0D458C4500433C4188C4261
:10022000F9D30A4A0A4C002301E013600432A242C7
:10023000FBD300F011F8FFF79BFFFEE70050002012
:100240000000002000000020C00200080000002084
:100250001C000020FEE7000070B500260C4D0D4B81
:100260005B1B9C10A64209D1002600F019F80A4D2C
:100270000A4B5B1B9C10A64205D170BD55F8043B90
:1002800098470136EEE755F8043B98470136F2E708
:10029000B8020008B8020008B8020008BC02000852
:1002A000F8B500BFF8BC08BC9E467047F8B500BF63
:0802B000F8BC08BC9E46704733
:0402B80055010008E4
:0402BC003101000804
:0400000508000205E8
:00000001FF
