:020000040800F2
:10000000005000202D0200087D0200087D0200083B
:100010007D0200087D0200087D020008000000004B
:100020000000000000000000000000007D02000849
:100030007D020008000000007D0200087D0200082B
:100040007D0200087D0200087D0200087D02000894
:100050007D0200087D0200087D0200087D02000884
:100060007D0200087D0200087D0200087D02000874
:100070007D0200087D0200087D0200087D02000864
:100080007D0200087D0200087D0200087D02000854
:100090007D0200087D0200087D0200087D02000844
:1000A0007D0200087D0200087D0200087D02000834
:1000B0007D0200087D0200087D0200087D02000824
:1000C0007D0200087D0200087D0200087D02000814
:1000D0007D0200087D0200087D0200087D02000804
:1000E0007D0200087D020008000000007D0200087B
:1000F0007D0200087D0200087D0200087D020008E4
:100100007D0200087D0200087D0200087D020008D3
:100110007D0200087D0200087D0200087D020008C3
:100120007D0200087D0200087D0200087D020008B3
:1001300010B5054C237833B9044B13B10448AFF321
:1001400000800123237010BD00000020000000008B
:10015000C802000808B5034B1BB103490348AFF3BD
:10016000008008BD0000000004000020C802000854
:1001700080B400AF2A4B9B69294A43F01003936176
:10018000274B9B69264A43F004039361254B5B6828
:10019000244A23F400135360224B5B68214A43F442
:1001A000801353601F4B5B681E4A23F400035360A7
:1001B0001C4B5B681B4A23F4800353601A4B1B687B
:1001C000194A43F400031360174B1B68164A23F4C3
:1001D00080031360144B1B68134A23F4001313604D
:1001E000114B1B68104A23F4801313600E4BDB681D
:1001F0000D4A43F02003D3600B4B9B6803F02003B0
:10020000002B06D0074B1B69064A43F400531361C9
:10021000F2E7044B1B69034A43F000531361EBE719
:100220000010024000100140000801400D488546C2
:10023000AFF300800C480D490D4A002302E0D4586A
:10024000C4500433C4188C42F9D30A4A0A4C002320
:1002500001E013600432A242FBD300F011F8FFF773
:1002600087FFFEE700500020000000200000002073
:10027000E8020008000000201C000020FEE700004B
:1002800070B500260C4D0D4B5B1B9C10A64209D18E
:10029000002600F019F80A4D0A4B5B1B9C10A64281
:1002A00005D170BD55F8043B98470136EEE755F887
:1002B000043B98470136F2E7E0020008E00200083C
:1002C000E0020008E4020008F8B500BFF8BC08BC72
:1002D0009E467047F8B500BFF8BC08BC9E46704704
:0402E00055010008BC
:0402E40031010008DC
:040000050800022DC0
:00000001FF
